:100000000C945D000C9485000C9485000C94850084
:100010000C9485000C9485000C9485000C9485004C
:100020000C9485000C9485000C9485000C9485003C
:100030000C9485000C9485000C9485000C9485002C
:100040000C94E2020C9485000C9452030C942C0343
:100050000C9485000C9485000C9485000C9485000C
:100060000C9485000C9485000000000024002700FB
:100070002A0000000000250028002B0004040404CE
:100080000404040402020202020203030303030342
:10009000010204081020408001020408102001021F
:1000A00004081020000000080002010000030407FB
:1000B0000000000000000000840311241FBECFEFE9
:1000C000D8E0DEBFCDBF11E0A0E0B1E0ECE6F0E1AA
:1000D00002C005900D92A438B107D9F722E0A4E838
:1000E000B1E001C01D92AE35B207E1F710E0CDE5F9
:1000F000D0E004C02197FE010E94F306CC35D10761
:10010000C9F70E94E5030C9434080C94000080E4C5
:1001100080937C0080917A00806480937A00809143
:100120007A0086FDFCCF8091780090917900089547
:1001300090E0FC01EC55FF4F2491FC01E057FF4F8C
:100140003491FC01E458FF4FE491EE23C9F02223DF
:1001500039F0233001F1A8F4213019F1223029F1CE
:10016000F0E0EE0FFF1FEE58FF4FA591B4918FB74F
:10017000F894EC91611126C030953E233C938FBFDB
:1001800008952730A9F02830C9F0243049F780912C
:1001900080008F7D03C0809180008F7780938000E6
:1001A000DFCF84B58F7784BDDBCF84B58F7DFBCF68
:1001B0008091B0008F778093B000D2CF8091B00053
:1001C0008F7DF9CF3E2BDACFAF92BF92CF92DF92E5
:1001D000EF92FF920F931F93CF93DF936C017B01FC
:1001E0008B01040F151FEB015E01AE18BF08C0178D
:1001F000D10759F06991D601ED91FC910190F08100
:10020000E02DC6010995892B79F7C501DF91CF91C2
:100210001F910F91FF90EF90DF90CF90BF90AF9024
:100220000895FC01538D448D252F30E0842F90E0FC
:10023000821B930B541710F0CF96089501970895E1
:10024000FC01918D828D981761F0A28DAE0FBF2FAA
:10025000B11D5D968C91928D9F5F9F73928F90E000
:1002600008958FEF9FEF0895FC01918D828D98176F
:1002700031F0828DE80FF11D858D90E008958FEFAC
:100280009FEF0895FC01918D228D892F90E0805C75
:100290009F4F821B91098F73992708958FE991E0F1
:1002A0000E94420121E0892B09F420E0822F089569
:1002B00080E090E0892B29F00E944E0181110C947E
:1002C00000000895FC01A48DA80FB92FB11DA35AF9
:1002D000BF4F2C91848D90E001968F739927848F66
:1002E000A689B7892C93A089B1898C918370806489
:1002F0008C93938D848D981306C00288F389E02D2A
:1003000080818F7D80830895EF92FF920F931F93DA
:10031000CF93DF93EC0181E0888F9B8D8C8D9813B8
:100320001AC0E889F989808185FF15C09FB7F894C4
:10033000EE89FF896083E889F98980818370806410
:1003400080839FBF81E090E0DF91CF911F910F915B
:10035000FF90EF900895F62E0B8D10E00F5F1F4F6A
:100360000F731127E02E8C8D8E110CC00FB607FC79
:10037000FACFE889F989808185FFF5CFCE010E9407
:100380006201F1CFEB8DEC0FFD2FF11DE35AFF4F12
:10039000F0829FB7F8940B8FEA89FB898081806295
:1003A000CFCFCF93DF93EC01888D8823B9F0AA8952
:1003B000BB89E889F9898C9185FD03C0808186FD20
:1003C0000DC00FB607FCF7CF8C9185FFF2CF80816F
:1003D00085FFEDCFCE010E946201E9CFDF91CF9181
:1003E0000895FC0101900020E9F73197AF01481B07
:1003F000590BBC018FE991E00C94E4008F929F921D
:10040000AF92BF920F931F93CF93DF93CDB7DEB719
:10041000A1970FB6F894DEBF0FBECDBF19A2423030
:1004200008F44AE08E010F5D1F4F842E912CB12CF1
:10043000A12CA50194010E94BD06E62FB901CA01B5
:10044000EA30F4F4E05DD801EE938D01232B242BE8
:10045000252B79F790E080E0109719F0CD010E94EC
:10046000F101A1960FB6F894DEBF0FBECDBFDF91AC
:10047000CF911F910F91BF90AF909F908F90089553
:10048000E95CE1CFCF92DF92EF92FF92CF93DF93BF
:100490006B017C016DE28FE991E00E948401EC0127
:1004A00066277727CB016C197D098E099F094AE0E1
:1004B0000E94FE018C0F9D1FDF91CF91FF90EF9066
:1004C000DF90CF900895CF93DF930E94F101EC016C
:1004D00088E191E00E94F1018C0F9D1FDF91CF9187
:1004E0000895CF92DF92EF92FF920F931F93CF93D5
:1004F000DF93ECE3F2E030E020E04281411140C0C4
:100500007C018901000F111F020F131F045C1D4F96
:1005100081E0F801828387E190E00E94F906EC0116
:10052000188619861A861B861C821D821E821F82CF
:10053000188219821A821B821C861D866C01FFE0BC
:10054000CF0ED11C6AE171E0C6010E941E081E8612
:10055000F801D183C08347E050E0B701C6010E9493
:100560002508C7010E946302F80180819181DF9113
:10057000CF911F910F91FF90EF90DF90CF90089552
:100580002F5F3F4F33962A30310509F0B6CF90E008
:1005900080E0EDCFCF93DF93BC01990F880B990BCF
:1005A00097FF0CC00E944202EC0188E191E00E949A
:1005B000F1018C0F9D1FDF91CF9108954AE00E94B9
:1005C000FE01F2CF1F920F920FB60F9211242F93BC
:1005D0003F938F939F93AF93BF9380919B01909193
:1005E0009C01A0919D01B0919E0130919A0126E05D
:1005F000230F2D3758F50296A11DB11D20939A01A6
:1006000080939B0190939C01A0939D01B0939E01C8
:100610008091960190919701A0919801B0919901D4
:100620000196A11DB11D8093960190939701A0930F
:100630009801B0939901BF91AF919F918F913F9194
:100640002F910F900FBE0F901F90189529E8230F40
:100650000396A11DB11DD2CF1F920F920FB60F921C
:1006600011242F933F934F935F936F937F938F93B7
:100670009F93AF93BF93EF93FF938FE991E00E9415
:100680006201FF91EF91BF91AF919F918F917F9107
:100690006F915F914F913F912F910F900FBE0F90EF
:1006A0001F9018951F920F920FB60F9211242F933F
:1006B0008F939F93EF93FF93E091AF01F091B0017F
:1006C0008081E091B501F091B60182FD1BC090815F
:1006D0008091B8018F5F8F732091B901821741F02B
:1006E000E091B801F0E0E156FE4F958F8093B8019C
:1006F000FF91EF919F918F912F910F900FBE0F90CF
:100700001F9018958081F4CF1092A2011092A10140
:1007100088EE93E0A0E0B0E08093A3019093A40161
:10072000A093A501B093A6018AE091E09093A00167
:1007300080939F0185EC90E09093AC018093AB0196
:1007400084EC90E09093AE018093AD0180EC90E05A
:100750009093B0018093AF0181EC90E09093B2014F
:100760008093B10182EC90E09093B4018093B30147
:1007700086EC90E09093B6018093B5011092B80199
:100780001092B9011092BA011092BB0110923E0270
:1007900010924102109244021092470210924A02B3
:1007A00010924D0210925002109253021092560273
:1007B00010925902ECE3F2E0118210821282339619
:1007C00082E0EA35F807C1F70895789484B582602D
:1007D00084BD84B5816084BD85B5826085BD85B5E5
:1007E000816085BD80916E00816080936E00109263
:1007F00081008091810082608093810080918100DE
:10080000816080938100809180008160809380006E
:100810008091B10084608093B1008091B0008160CC
:100820008093B00080917A00846080937A008091F8
:100830007A00826080937A0080917A008E7F809324
:100840007A0080917A00806880937A001092C100CB
:10085000E091AF01F091B00182E08083E091AB01C3
:10086000F091AC011082E091AD01F091AE0187E60C
:1008700080831092B701E091B301F091B40186E05A
:100880008083E091B101F091B20180818061808329
:10089000E091B101F091B201808188608083E091A4
:1008A000B101F091B201808180688083E091B10153
:1008B000F091B20180818F7D80838BE191E00E9475
:1008C0007102909391018093900181E291E00E94E6
:1008D0007102909387018093860187E291E00E94E4
:1008E00071029093850180938401E0919001F091D1
:1008F000910180ED97E0A0E0B0E084839583A6832A
:10090000B7832FB7F89440919B0150919C0160915F
:100910009D0170919E012FBF408351836283738339
:1009200021E0248715862687E0918401F0918501D6
:1009300084839583A683B783E0918601F091870134
:1009400080EA9FE0A0E0B0E084839583A683B7832C
:1009500010928901109288017AE5872E72E0972E15
:10096000C1E0E12CE2E0FE2EF2E3CF2ED12C66E8CE
:10097000262E60E0362EDFEF50E0A52E50E0B52E9B
:100980008FB7F89440919B0150919C0160919D011B
:1009900070919E018FBF4093920150939301609399
:1009A000940170939501ACE3B2E0ED91FC91119745
:1009B000309729F18485882381F0408051806280BE
:1009C00073808A019B01041915092609370928013A
:1009D000390140865186628673860085118522859D
:1009E000338544805580668077800415150526057B
:1009F000370528F0882319F01486C587C687139613
:100A00008A169B0691F6E0919001F09191018585FF
:100A1000882309F44EC121E030E030938F01209308
:100A20008E011586108611861286138640835183A7
:100A300062837383C487C6878CE291E00E94F101D0
:100A400060918C0170918D01072E000C880B990B21
:100A500097FF2BC10E94420284E391E00E94F101C2
:100A60000E9487000E94CA020E9487009C013250A7
:100A700037FF03C09701281B390B80918A019091A1
:100A80008B01820F931F90938B0180938A01209199
:100A90008801309189012F5F3F4F30938901209366
:100AA0008801233331050CF49AC0E0918601F0915E
:100AB0008701B6010E94A90670938B0160938A0199
:100AC000848581113DC0858581113AC069307105E9
:100AD000BCF180918C0190918D01892B89F5A091B9
:100AE0008401B09185011C961C921C971D961C9246
:100AF0001D971E961C921E971D921D921D921C9270
:100B0000139718961D921D921D921C921B9780910F
:100B1000920190919301A0919401B09195018083ED
:100B20009183A283B383C4871586168685E491E0FA
:100B30000E94F10180918A0190918B010E94CA026A
:100B4000E0918401F09185018485811140C0858503
:100B500081113DC080918A0190918B010997BCF56C
:100B600080918C0190918D01019789F5A09186016A
:100B7000B09187011C961C921C971D961C921D9784
:100B80001E961C921E971D921D921D921C921397E9
:100B900018961D921D921D921C921B978091920196
:100BA00090919301A0919401B091950180839183DC
:100BB000A283B383C4871586168685E591E00E94DB
:100BC000F10180918A0190918B010E94CA021092DA
:100BD0008B0110928A011092890110928801E09194
:100BE0008601F09187018585882371F086858823A9
:100BF00059F0168681E090E090938D0180938C01EE
:100C000087E691E00E946302E0918401F091850102
:100C10008585882361F08685882349F016861092A1
:100C20008D0110928C0185E791E00E946302809112
:100C30008C0190918D01D89F9001D99F300D112486
:100C4000EAE9F0E06491F1018491882399F090E061
:100C5000880F991FFC01E859FF4FA591B491FC0141
:100C6000EE58FF4F459154918FB7F8949C91692BA2
:100C70006C938FBF2115310529F560E08AE00E9451
:100C8000980060918E0180918C01682B8DE00E940C
:100C90009800A114B10409F473CE0E944E01882378
:100CA00009F469CE0E94000062CE4AE00E94FE0173
:100CB000D3CE10928F0110928E0160E08DE00E94E1
:100CC0009800D2CE2F3F310511F461E0D7CFEEEA84
:100CD000F0E08491833019F140F48130B1F082303A
:100CE000C9F0203831058CF7C8CF873011F1883032
:100CF00041F18430B1F78091800080628093800060
:100D000030938B0020938A00BCCF84B5806884BD6B
:100D100027BDB7CF84B5806284BD28BDB2CF809196
:100D20008000806880938000309389002093880041
:100D3000A8CF8091B00080688093B0002093B3006A
:100D4000A0CF8091B00080628093B0002093B40067
:100D500098CF97FB072E16F4009407D077FD09D0A3
:100D60000E94DF0607FC05D03EF4909581959F4FC9
:100D70000895709561957F4F0895A1E21A2EAA1BE0
:100D8000BB1BFD010DC0AA1FBB1FEE1FFF1FA2173B
:100D9000B307E407F50720F0A21BB30BE40BF50B38
:100DA000661F771F881F991F1A9469F760957095C1
:100DB000809590959B01AC01BD01CF010895AA1BC0
:100DC000BB1B51E107C0AA1FBB1FA617B70710F036
:100DD000A61BB70B881F991F5A95A9F78095909568
:100DE000BC01CD010895EE0FFF1F0590F491E02D99
:100DF00009940F931F93CF93DF938230910510F4E2
:100E000082E090E0E0915C02F0915D0230E020E051
:100E1000B0E0A0E0309799F42115310509F44AC0FB
:100E2000281B390B24303105D8F58A819B81611547
:100E3000710589F1FB0193838283FE0111C040811A
:100E400051810281138148175907E0F0481759076B
:100E500099F4109761F012960C93129713961C93C5
:100E60003296CF01DF91CF911F910F91089500939A
:100E70005C0210935D02F4CF2115310551F0421749
:100E8000530738F0A901DB019A01BD01DF01F80128
:100E9000C1CFEF01F9CF90935D0280935C02CDCF7B
:100EA000FE01E20FF31F81939193225031093983A0
:100EB0002883D7CF20915A0230915B02232B41F433
:100EC000209102013091030130935B0220935A027A
:100ED00020910001309101012115310541F42DB718
:100EE0003EB74091040150910501241B350BE09160
:100EF0005A02F0915B02E217F307A0F42E1B3F0B9E
:100F00002817390778F0AC014E5F5F4F241735077B
:100F100048F04E0F5F1F50935B0240935A0281933B
:100F200091939FCFF0E0E0E09CCFCF93DF930097C9
:100F3000E9F0FC01329713821282A0915C02B09119
:100F40005D02ED0130E020E01097A1F420813181B5
:100F5000820F931F20915A0230915B0228173907A4
:100F600009F061C0F0935B02E0935A02DF91CF91E8
:100F70000895EA01CE17DF07E8F54A815B819E01FB
:100F800041155105B1F7E901FB83EA834991599174
:100F9000C40FD51FEC17FD0761F480819181029683
:100FA000840F951FE90199838883828193819B83B4
:100FB0008A83F0E0E0E012968D919C911397009760
:100FC000B9F52D913C911197CD010296820F931F97
:100FD00020915A0230915B022817390739F6309771
:100FE00051F510925D0210925C02B0935B02A093E7
:100FF0005A02BCCFD383C28340815181840F951F95
:10100000C817D90761F44E5F5F4F88819981480FF7
:10101000591F518340838A819B8193838283211549
:10102000310509F0B0CFF0935D02E0935C029ECFF2
:10103000FD01DC01C0CF13821282D7CFFB01DC019E
:1010400001900D920020E1F70895FB01DC01415071
:10105000504048F001900D920020C9F701C01D9248
:0C10600041505040E0F70895F894FFCF95
:10106C0000005E028000000000008401E400110119
:10107C00D1014201200134010D0A00626C696E6BD2
:10108C000073746172740073746F700053746174C4
:10109C0075732000202D2073656E736F722076613E
:1010AC006C756520004D61737465722061637469A1
:1010BC0076653A20004D617374657220696E6163C8
:1010CC00746976653A2000656E61626C6520736F99
:1010DC00636B65740064697361626C6520736F6324
:0410EC006B657400BC
:00000001FF
